:03000000021905DD
:0C190500787FE4F6D8FD75815102194C82
:101DDA00121E76121EDD7F967E00120003121DB7B8
:101DEA0012161B121DFC1216ED7F887E13120003B9
:021DFA0080F176
:101E7600E5A2543FF5A2759850758E40E4F5897534
:0C1E86008BE0758DFED28ED2ACD2AF2264
:03002300021EF2C8
:0F1EF200309805C298859944309904C299C2026C
:011F010032AD
:091F53002002FDEFD202F59922F3
:101D49008B338A348935AB33AA34A935121411601F
:101D5900130535E5357002053414F9121411FF1213
:051D69001F5380E2227F
:101F0200244D5055363035302C002C002C306500D5
:06151600AC06AD077B00EE
:10151C008B358A3689378C388D39C3E5386480949D
:10152C0080500FC3E49539F539E49538F538742DAE
:10153C008008AB35AA36A9377420121457AE38AFD1
:10154C00397C277D1012148BEF2430FFAB35053717
:10155C00E53770020536F9AA36EF121457AE38AFDC
:10156C00397C277D1012148B8C388D39AE38AF39FD
:10157C007C037DE812148BEF2430FFAB350537E587
:10158C003770020536F9AA36EF121457AE38AF3958
:10159C007C037DE812148B8C388D39AE38AF397CD6
:1015AC00007D6412148BEF2430FFAB350537E53723
:1015BC0070020536F9AA36EF121457AE38AF397CE3
:1015CC00007D6412148B8C388D39AE38AF397C00A9
:1015DC007D0A12148BEF2430FFAB350537E53770DD
:1015EC00020536F9AA36EF121457AE38AF397C0023
:1015FC007D0A12148B8C388D39E5392430FFAB35CC
:0F160C000537E53770020536F9AA36EF02145795
:10000300E4FDFCC3ED9FEC9E5015E4FBFA0BBB0033
:0F001300010AEB64794A70F50DBD00010C80E421
:0100220022BB
:051F9100007F0BDFFEE4
:011F96002228
:0F1F1200D2A7D2A6121F91C2A7121F91C2A62258
:0C1F2F00C2A7D2A6121F91D2A7021F91D8
:0E1F2100A20392A7D2A6121F91C2A6021F9180
:0C1F3B00D2A6121F91A2A7C2A6021F91FD
:021D9300AE0799
:101D9500E4FDEDC39408748094805013EE25E0FEB5
:101DA50092A7D2A6121F91C2A6121F910D80E3021F
:021DB5001F3BD2
:101CA900E4FED2A7FDEDC39408748094805017EE2A
:101CB90025E0FED2A6121F91A2A7E4334206C2A6CE
:081CC900121F910D80DFAF0630
:011CD10022F0
:101EAC00AC05AB07121F127FD0121D93AF03121D8E
:091EBC0093AF04121D93021F2FC5
:021D2200AC070C
:101D2400121F127FD0121D93AF04121D93121F12A3
:101D34007FD1121D93121CA9AE07D203121F2112C8
:041D44001F2FAF0698
:011D48002278
:101DB700E4FD7F6B121EAC7D077F19121EAC7D06FA
:101DC7007F1A121EAC7D187F1B121EAC7D017F1C73
:031DD700021EAC3D
:021E9200AB079C
:101E9400121D22AA07EB04FF121D22AD07EAFE7CE5
:071EA40000E42DFFEC3EFEFF
:011EAB002214
:041C2000AD07AC065A
:101C24007B007A00791712151CE4F533F534741728
:101C34002534F8E6FF121F530534E53470020533EA
:0B1C4400C39406E5336480948040E305
:011C4F002272
:101CD20090000312142A12145790000412142A902E
:101CE200000112146990000512142A9000021214C5
:081CF20069900003E40214698B
:1016ED007BFF7A1F7902121D497F3B121E92121C3D
:1016FD00207BFF7A1F790C121D497F3D121E92121D
:10170D001C207BFF7A1F790C121D497F3F121E9200
:10171D00121C207BFF7A1F790C121D497F43121E6C
:10172D0092121C207BFF7A1F790C121D497F4512E6
:10173D001E92121C207BFF7A1F790C121D497F47C8
:10174D00121E92121C207BFF7A1F790E121D497FEB
:10175D003B121E927A0079211215167F3D121E92B0
:10176D007A0079271215167F3F121E92AC06AD072F
:10177D007B007A00792D12151C7B007A00792112DD
:10178D001CD27A007927121CD27A00792D121CD224
:10179D008B367537007538278B398A3A893B7A0035
:0517AD007921021BEF91
:101EC5002448454152542C002C002C306500FD005F
:081ED500000000000000000005
:0B1F4700C10002500000034D0000002C
:051F9700007F19DFFED0
:011F9C002222
:101EDD0053BAFE759A5075D7E875D6FF438E1475B3
:051EED00AF01D2AF229D
:03004300021B633A
:0B1B6300C0E0C0D075D000C000C0077B
:101B6E00E59A30E035539AFEAF9B300026D3E5510F
:101B7E009402E55064809480400AC200755000754E
:101B8E005100800F744D2551F8A6070551E551708F
:101B9E00020550EF64FD7002D200E59A30E1055364
:041BAE009AFDC201D9
:091BB200D007D000D0D0D0E03201
:081F89002001FDD2018F9B2213
:101D6E008B1D8A1E891FAB1DAA1EA91F121411607E
:101D7E0013051FE51F7002051E14F9121411FF1230
:051D8E001F8980E22224
:081BBB007B007A007921AD4D99
:101BC300ED75F064842430121457ED75F06484E5E8
:101BD300F075F00A842430900001121469ED75F059
:0C1BE3000A84E5F024309000020214692E
:101A140078217C007D007BFF7A1E79D97E007F04CB
:101A24001213EB7BFF7A1E79C5121D49121BBB12E0
:101A34001D497BFF7A1E79CD121D497B007A0079FE
:101A440021AD4E121BC3121D497BFF7A1E79CD12A4
:101A54001D497B007A007921AD4F121BC3121D4929
:101A64007BFF7A1E79CF121D497B007A007921AD64
:101A74004F121BC3121F6E121BBB121F777B007AFF
:0B1A8400007921AD4E121BC3021F8031
:101DFC00E4FDFC74D32DF582741E3CF583E493FF53
:101E0C00121F890DBD00010CED64064C70E5021A21
:011E1C0014B1
:100046003A3030300048303030204C3030300030DC
:1000560030302C3030302C303030002C0020202432
:10006600242424BF642434282422202000100804D9
:10007600023F4544444242424178000000000000ED
:10008600000000C03FC000000000000000804020CB
:10009600100C03000000030C102040800000083004
:1000A60000FF20202020FF2020222C200004040214
:1000B60001FF8040300E01061820408000000484B5
:1000C600844424548F142444848404000041390059
:1000D600003C4040424C4040700409310000007E24
:1000E6000000FF0040300F04146404000040407E0E
:1000F60042427E4242427E42427E40400010101002
:10010600FF9020984828090E2848A8180002428126
:100116007F0040404242427E424242400000008010
:100126000000E002041800000040800000100C03EC
:1001360000003F40404040407800010E000014A4FB
:10014600442434AD6624940444A414000008090829
:1001560008090909FD09090B08080908000000F843
:100166000808F80C0B08F80808F800000040407F63
:1001760040407F4040407F40407F4040000000FEBE
:100186000282828282FA8282828282020080601FDA
:1001960040404040407F4040445840400000FE02FE
:1001A60022DA0620D808090E088828180000FF0859
:1001B600100807003F444442414078000000F80818
:1001C600FF08F8003EAA6A3E2AAA3E0000206321E4
:1001D6001F11394829098DFB09082C580000806039
:1001E600F807001CE0010600E01E00000001000008
:1001F600FF00804020130C13204080800000000088
:10020600E0000000FF00000020408000000804031A
:10021600000040807F0000000000010E0010600218
:100226008C0008F94EC820584F48C8080004047EC0
:100236008140300F407F0044847F0404000404049E
:1002460004F49495969494F4040404040000FE02C5
:10025600027A4A4A4A4A4A7A0282FE0000008060CE
:10026600F80700FC848484FE8283828000010000FB
:10027600FF0000FF402000418E3040F800FFFF677E
:10028600F7FBBB3B3B3B3BFBF7F707FFFE1F3F384C
:100296007163E3E7CECFE7E371703C1F0FFEFFFF0C
:1002A600FFFFFFFFFEFEFFFFFFFFFFFFFE0103074D
:1002B6000F1F7FFFFFFFFF7F1F0F070301EFFFFFEA
:1002C600FFFFFFFFFFFFFFFFFFFFFFFFEF3FFFFF08
:1002D600FFFFFFFFF0F0FFFFFFFFFFFF3FC0F0F85B
:1002E600FCFEDEBFFFFFBFDEFEFCF8F0C0030F1F03
:1002F6003F7F7BFDFFFFFD7B7F3F1F0F030000005D
:100306000000000000002F000000000700070000AA
:10031600147F147F1400242A7F2A120062640813B3
:100326002300364955225000000503000000001C3A
:10033600224100000041221C000014083E0814005F
:1003460008083E0808000000A06000000808080829
:1003560008000060600000002010080402003E5102
:1003660049453E0000427F40000042615149460037
:100376002141454B31001814127F10002745454591
:1003860039003C4A494930000171090503003649E4
:1003960049493600064949291E0000363600000044
:1003A60000563600000008142241000014141414EC
:1003B60014000041221408000201510906003249C6
:1003C60059513E007C1211127C007F494949360082
:1003D6003E41414122007F4141221C007F4949495B
:1003E60041007F09090901003E4149497A007F0819
:1003F60008087F0000417F4100002040413F010086
:100406007F08142241007F40404040007F020C02DA
:100416007F007F0408107F003E4141413E007F0976
:10042600090906003E4151215E007F09192946004F
:1004360046494949310001017F0101003F404040E2
:100446003F001F2040201F003F4038403F006314FC
:100456000814630007087008070061514945430006
:10046600007F41410000552A552A55000041417F31
:100476000000040201020400404040404000000128
:10048600020400002054545478007F484444380045
:10049600384444442000384444487F003854545477
:1004A6001800087E0901020018A4A4A47C007F0895
:1004B6000404780000447D4000004080847D0000F4
:1004C6007F102844000000417F4000007C0418048F
:1004D60078007C0804047800384444443800FC243E
:1004E6002424180018242418FC007C08040408009E
:1004F600485454542000043F444020003C404020CF
:100506007C001C2040201C003C4030403C0044281D
:10051600102844001CA0A0A07C004464544C441441
:100526001414141414000000000000000000000061
:100536000000000000000000F800000000000000BD
:10054600333000000000100C06100C0600000000FE
:10055600000000000040C07840C0784000043F041E
:10056600043F040400007088FC08300000001820D6
:10057600FF211E0000F008F000E018000000211C1A
:10058600031E211E0000F00888700000001E2123B3
:10059600241927211010160E00000000000000008C
:1005A6000000000000000000E01804020000000047
:1005B600071820400000020418E000000000402058
:1005C6001807000000404080F08040400002020111
:1005D6000F01020200000000F0000000000101010E
:1005E6001F01010100000000000000000080B07043
:1005F60000000000000000000000000000000101F3
:10060600010101010100000000000000000030307F
:100616000000000000000000008060180400601860
:10062600060100000000E010080810E000000F10AE
:100636002020100F00001010F800000000002020FD
:100646003F2020000000700808088870000030284D
:100656002422213000003008888848300000182005
:100666002020110E000000C02010F8000000070432
:1006760024243F240000F80888880808000019216F
:100686002020110E0000E0108888180000000F11CD
:100696002020110E0000380808C8380800000000A5
:1006A6003F000000000070880808887000001C22C7
:1006B6002121221C0000E010080810E00000003193
:1006C6002222110F00000000C0C000000000000040
:1006D60030300000000000008000000000000080B4
:1006E60060000000000000804020100800000102A9
:1006F60004081020004040404040404000040404EC
:1007060004040404000008102040800000002010AB
:100716000804020100007048080808F00000000004
:100726003036010000C030C828E810E0000718275E
:100736002423140B000000C038E0000000203C23F6
:10074600020227382008F8888888700000203F2099
:100756002020110E00C030080808083800071820AD
:10076600202010080008F808080810E000203F20A4
:100776002020100F0008F88888E8081000203F2085
:10078600202320180008F88888E8081000203F2059
:100796000003000000C030080808380000071820D1
:1007A60020221E020008F808000008F808203F2151
:1007B6000101213F20000808F80808000000202059
:1007C6003F2020000000000808F8080800C08080CC
:1007D600807F00000008F888C028180800203F2005
:1007E600012638200008F8080000000000203F20FD
:1007F600202020300008F8F800F8F80800203F0014
:100806003F003F200008F830C00008F808203F20CD
:100816000007183F00E01008080810E0000F10203D
:100826002020100F0008F808080808F000203F21D3
:100836000101010000E01008080810E0000F18246C
:100846002438504F0008F8888888887000203F2098
:1008560000030C3020007088080808380000382093
:100866002121221C00180808F8080818000000209A
:100876003F2000000008F808000008F808001F20C4
:100886002020201F000878880000C83808000007CC
:10089600380E010000F80800F80008F800033C07CD
:1008A60000073C0300081868808068180820302C70
:1008B60003032C30200838C800C838080000002080
:1008C6003F2000000010080808C838080020382615
:1008D6002120201800000000FE0202020000000095
:1008E6007F40404000000C30C000000000000000C7
:1008F600010638C00000020202FE0000000040406F
:10090600407F000000000004020202040000000014
:100916000000000000000000000000000080808051
:100926008080808080000202040000000000000039
:100936000000000000000080808080000000192474
:100946002222223F2008F8008080000000003F118C
:100956002020110E000000008080800000000E1193
:100966002020201100000000808088F800000E1171
:100976002020103F200000808080800000001F2281
:100986002222221300008080F08888881800202008
:100996003F202000000000808080808000006B9453
:1009A600949493600008F8008080800000203F2126
:1009B6000000203F200080989800000000002020C2
:1009C6003F20200000000000809898000000C080B2
:1009D60080807F000008F8000080808000203F248F
:1009E600022D302000000808F8000000000020203A
:1009F6003F202000008080808080808000203F2073
:100A0600003F20003F8080008080800000203F2142
:100A16000000203F200000808080800000001F2012
:100A26002020201F00808000808000000080FFA121
:100A36002020110E000000008080808000000E1132
:100A46002020A0FF80808080008080800020203FC2
:100A56002120000100000080808080800000332477
:100A66002424241900008080E0808000000000001B
:100A76001F202000008080000000808000001F20D2
:100A86002020103F20808080000080808000010EA2
:100A9600300806010080800080008080800F300CC6
:100AA600030C300F00008080008080800000203121
:100AB6002E0E312000808080000080808080818E14
:100AC6007018060100008080808080800000213040
:100AD6002C2221300000000000807C020200000071
:100AE60000003F404000000000FF00000000000042
:100AF60000FF0000000002027C8000000000404071
:100B06003F0000000000060101020204040000008C
:100B160000000000000003050911FF118905C3004C
:100B2600E000F000F8000000000000004428FF117B
:100B3600AA440000000000000000000000000000C1
:100B4600000000000000000000000000000000009F
:100B5600000000000000000000000000000000008F
:100B660000000000000000000000000000000083FC
:100B76000138448292927401830000000000000054
:100B86007C44C7017D7D7D7D017D7D7D7D017D7DF3
:100B96007D7D01FF00000000000001000100010052
:100BA600010001000100000000000000000001013A
:100BB600000000000000000000000000000000002F
:100BC600000000000000000000000000000000001F
:100BD600000000000000000000000000000000000F
:100BE60000000000000000000000000000000001FE
:100BF60001000000000000010100000000000000EC
:100C060000000101010101010101010101010101D0
:100C1600010101010000000000000000000040404A
:100C260040404000006D6D6D6D6D0000606060605D
:100C3600600000404040404000000000000000000E
:100C4600000000000000000000000000000000009E
:100C5600000000000000000000000000000000008E
:100C6600000000000000000000000000000000007E
:100C7600000000000000000000000000000000006E
:100C8600000000000000000000000000000000005E
:100C96000000000000000000000000000000DBDB98
:100CA600DBDBDB0000DBDBDBDBDB0000DBDBDBDBFA
:100CB600DB0000DBDBDBDBDB0000DADADADADA00CA
:100CC60000D8D8D8D8D80000C0C0C0C0C00000C066
:100CD600C0C0C0C00000C0C0C0C0C00000C0C0C00E
:100CE600C0C00000808080808000000000000000FE
:100CF60000000000000000000000000000000000EE
:100D060000000000000000000000000000000000DD
:100D160000000000000000000000000000000606C1
:100D26000606060000060606060600000606060675
:100D360006000006060606060000060606E666200B
:100D4600000606860606000006060606860000065B
:100D560006060606000086868686868080868606C5
:100D66008686C0C08686860606D0307606060606C5
:100D76000000060606060600000606060606000031
:100D86000606060606000006060606060000000021
:100D9600000000000000000000000000000000004D
:100DA600000000000000000000000000000000003D
:100DB60000000000000000000000000000000060CD
:100DC6001C00FE00010200C41820029E63B20E0041
:100DD600FF8181FF00008040300F00000000FF000F
:100DE60023EAAABFAAEA033F00FF000000000000B2
:100DF60000000000000000000000000000000000ED
:100E060000000000000000000000000000000000DC
:100E1600000000000000000080808000000000004C
:100E2600808080000000000000000000000000003C
:100E3600000000000000000000000000000E0C088A
:100E46000000010101010100000001000000010095
:100E56008180808180818080808001010101000085
:100E6600000100000001000101090C0E0000000055
:100E760000000000000000000000000000C0C0C02C
:100E8600C0C0C0C0C0C0C0C0C0C0C0C0C0C0C0C05C
:100E9600C0C0C0C000001E21404050215E001E217F
:100EA600404050215E0000000000000000000000ED
:100EB600000000000000000000000000000000002C
:100EC600000000000000000000000000000000001C
:100ED600FFFFC1C1FFFFC1C1FFFF0000000000000E
:100EE60000000000000000000000000000000000FC
:100EF60000000000000000000000000000FFFF806E
:100F0600FCF3EFF3FC80FF80EEEEEEF5FBFF9CBEFC
:100F1600B6B688FF000003050911FF118905C30055
:100F2600E000F000F8000000000000004428FF1177
:100F3600AA440000000000000000000000000000BD
:100F4600000000000000000000000000000000009B
:100F5600000000000000000000000000000000008B
:100F660000000000000000000000000000000083F8
:100F76000138448292927401830000000000000050
:100F86007C44FF017D7D7D7D017D7D7D7D017D7DB7
:100F96007D7D01FF0000000000000100010001004E
:100FA6000100010001000000000000000000010136
:100FB600000000000000000000000000000000002B
:100FC600000000000000000000000000000000001B
:100FD600000000000000000000000000000000000B
:100FE60000000000000000000000000000000001FA
:100FF60001000000000000010100000000000000E8
:1010060000000101010101010101010101010101CC
:1010160001010101000000000000000000000000C6
:1010260000000000000000000000000000000000BA
:1010360000000000F80808080808080800F818600A
:1010460080000000806018F80000002020F80000F2
:1010560000000000E0100808080810E0000000206A
:1010660020F8000000000000000000000000080852
:10107600080808886818000000000000000000004A
:10108600000000000000000000000000000000005A
:10109600000000000000000000000000000000004A
:1010A600000000000000000000000000000000003A
:1010B600000000007F01010101010100007F000026
:1010C600010618060100007F00000040407F4040F6
:1010D600000000001F2040404040201F000000404C
:1010E600407F40400000000000600000000000005B
:1010F600601806010000000000000000000000006B
:1011060000000000000000000000000000000000D9
:1011160000000000000000000000000000000000C9
:1011260000000000000000000000000000000000B9
:101136000000000000000000000040202020C00049
:1011460000E0202020E000000040E00000000060F9
:10115600202020E00000000000E0202020E0000029
:1011660000000040202020C0000040202020C000B9
:101176000000000000000000000000000000000069
:101186000000000000000000000000000000000059
:101196000000000000000000000000000000000049
:1011A6000000000000000000000000000000000039
:1011B600000000000000000000000C0A0A090C00F4
:1011C600000F0808080F000000080F080000000CB8
:1011D6000809090E00000C00000F0909090F00009C
:1011E6000C00000C0A0A090C00000C0A0A090C0083
:1011F60000000000000000000000000000000000E9
:1012060000000000000000000000000000000000D8
:1012160000000000000000000000000000000000C8
:1012260000000000000000000000000000000000B8
:1012360000000000000000000000000000000000A8
:101246000000000000000000000000000000000098
:101256000080808080808080800000000000000088
:101266000000000000000000000000000000000078
:101276000000000000000000000000000000000068
:101286000000000000000000000000000000000058
:101296000000000000007F030C300C037F000038C4
:1012A60054545800007C04047800003C40407C0004
:1012B6000000000000000000000000000000000028
:1012C6000000000000000000000000000000000018
:1012D60000FFAAAAAA280800FF00000000000000DC
:1012E60000000000000000000000000000000000F8
:1012F60000000000000000000000000000007F0366
:101306000C300C037F0000264949493200007F0259
:051316000408107F0037
:101E1D00D3EF9400EE940040147D6E7C00ED1D70A8
:0D1E2D00011CED4C70F7EF1F70E61E80E306
:011E3A002285
:091F5C00D2A4D2A5C2A5C2A422A0
:091F6500C2A4C2A5D2A4D2A52297
:071C5000AD07121F5C7F7855
:101C5700E4FEEEC39408748094805015EF30E704D7
:101C6700D2A58002C2A5D2A4C2A4EF25E0FF0E80B0
:071C7700E1D2A5D2A4C2A432
:011C7E002243
:0D00260074632BF58274003AF583E493FFB8
:10003300121C507F40121C57AF05121C57021F653C
:0D1E590024B0FF121E667F01121E667F106E
:101E6600121C50E4FF121C57AF05121C57021F65C7
:101E3B00AC07ED24B0FF121E66EC54F0C4540F44F3
:0E1E4B0010FF121E66EC540F4401FF021E66CB
:021C7F00AC07B0
:101C8100E4FBEBC3940874809480501BEB121E5943
:101C9100E4FAEAC39480748094805008AF0412007F
:071CA100330A80EE0B80DB2B
:011CA8002219
:101CFA00E4FCECC3940874809480501BEC121E59C7
:101D0A00E4FBEBC39480748094805008E4FF1200D3
:071D1A00330B80EE0C80DBAF
:011D2100229F
:10186C007FF47E01121E1D7FAE121E66E4FF121E57
:10187C00617F40121E667F81121E667FCF121E662C
:10188C007FA1121E667FC8121E667FA6121E667F7F
:10189C00A8121E667F3F121E667FD3121E66E4FFDF
:1018AC00121E667FD5121E667F80121E667FD912AD
:1018BC001E667FF1121E667FDA121E667F12121EE2
:1018CC00667FDB121E667F40121E667F20121E662C
:1018DC007F02121E667F8D121E667F14121E667F9B
:1018EC00A4121E667FA6121E667FAF121E66E4FF50
:0918FC00121C7FE4FDFF021E3BFB
:0C1A8F008F458C468D478B488A49894A58
:101A9B00E4F54BFCF54CAB48AA49A94A854C827539
:101AAB00830012142A605524E0F54BD3E545947E50
:101ABB0074809480400BE4F5450547E547700205BB
:101ACB0046AD47AF45121E3BE4FCECC39406748055
:101ADB009480501E75F006E54BA42403F582E5F0C7
:101AEB003403F583E5822CF582E4358312002E0C4A
:0C1AFB0080D874062545F545054C809AFE
:011B070022BB
:0A17B2007BFF7A0079617D067C0060
:0C17BC008F3C8C3D8D3E8B3F8A40894164
:1017C800E4F542FCF543AB3FAA40A9418543827545
:1017D800830012142A700302186B24E0F542D3E543
:1017E8003C947874809480400BE4F53C053EE53EDB
:1017F8007002053DAD3EAF3C121E3BE4FCECC394C9
:101808000874809480501E75F010E542A42CF5826F
:10181800E435F0F583E582242BF582E5833405125F
:10182800002E0C80D8E53E04FDAF3C121E3BE4FCC4
:10183800ECC3940874809480501E75F010E542A49F
:101848002CF582E435F0F583E5822433F582E583CF
:10185800340512002E0C80D87408253CF53C05434D
:031868000217CE96
:01186B00225A
:051B08007A00E4FDFC81
:061B0D008C218D22A907C6
:101B1300E4FCAE02EB7805C333CE33CED8F9FBAA8F
:101B230006AF01AD22121E3BE4FCECC3941074809B
:101B33009480500B1200260BBB00010A0C80EBAF04
:101B430001E52204FD121E3BE4FCECC394107480F7
:0F1B53009480500B1200260BBB00010A0C80EB94
:011B62002260
:0A1991008F088C098D0A8A0B8B0C5D
:10199B00E4F512F513AE0DAF0EFC7D0812148BEDB2
:1019AB004CAE0DAF0E700AFC7D0812148B8F148099
:1019BB000B7C007D0812148BEF04F514850A14C3FD
:1019CB00E514950EE50D6480F8748098503AAD14CB
:1019DB00AF08121E3BAC08ECC3950CE50B6480F80A
:1019EB00748098501FAB0FAA10A9110513E513AE05
:1019FB00127002051214F5828E8312142AFF120044
:081A0B00330C80D3051480B7F1
:011A130022B0
:10161B0012186C7B117A00E4FDFCFF121B0DE4FB2E
:10162B00FAFDFC7F12121B0D7B017F23121B087B23
:10163B00027F34121B087B037A00E4FDFC7F45120A
:10164B001B0D7B047A00E4FDFC7F56121B0D7B0502
:10165B007A00E4FDFC7F67121B0D7B127A007D0282
:10166B007C00E4FF121B0D7B067A007D027C007F61
:10167B0012121B0D7B077A007D027C007F23121B4D
:10168B000D7BFF7A0079467D027C007F341217BCFC
:10169B007B137A007D047C00E4FF121B0D7B087A20
:1016AB00007D047C007F12121B0D7B097A007D04E8
:1016BB007C007F23121B0D7BFF7A00794B7D047C12
:1016CB00007F341217BC7B147A007D067C00E4FF8C
:1016DB00121B0D7BFF7A0079557D067C007F120271
:0216EB0017BC2A
:091F6E007D027C007F3D0217BCDE
:091F77007D047C007F3D0217BCD3
:091F80007D047C007F650217BCA2
:101BEF007D067C007F121217BC7F2A1217B2AB360C
:101BFF00AA37A9387D067C007F321217BC7F4A12A4
:101C0F0017B2AB39AA3AA93B7D067C007F52021767
:011C1F00BC08
:10191100021DDAE493A3F8E493A34003F68001F2F5
:1019210008DFF48029E493A3F85407240CC8C333D7
:10193100C4540F4420C8834004F456800146F6DFA6
:10194100E4800B0102040810204080901F47E47ED0
:10195100019360BCA3FF543F30E509541FFEE4939B
:10196100A360010ECF54C025E060A840B8E493A362
:10197100FAE493A3F8E493A3C8C582C8CAC583CA8D
:10198100F0A3C8C582C8CAC583CADFE9DEE780BE45
:011F5200008E
:10131B00E709F608DFFA8046E709F208DFFA803EB4
:10132B0088828C83E709F0A3DFFA8032E309F608A1
:10133B00DFFA8078E309F208DFFA807088828C8309
:10134B00E309F0A3DFFA806489828A83E0A3F608BD
:10135B00DFFA805889828A83E0A3F208DFFA804C97
:10136B0080D280FA80C680D4806980F2803380106E
:10137B0080A680EA809A80A880DA80E280CA8033D7
:10138B0089828A83ECFAE493A3C8C582C8CCC5834F
:10139B00CCF0A3C8C582C8CCC583CCDFE9DEE7801F
:1013AB000D89828A83E493A3F608DFF9ECFAA9F09E
:1013BB00EDFB2289828A83ECFAE0A3C8C582C8CCF4
:1013CB00C583CCF0A3C8C582C8CCC583CCDFEADE0D
:1013DB00E880DB89828A83E493A3F208DFF980CC6F
:1013EB0088F0EF60010E4E60C388F0ED2402B40468
:1013FB000050B9F582EB2402B4040050AF2323450F
:06140B00822390136B73B5
:10141100BB010689828A83E0225002E722BBFE02D9
:09142100E32289828A83E493220C
:10142A00BB010CE58229F582E5833AF583E0225077
:10143A0006E92582F8E622BBFE06E92582F8E222C1
:0D144A00E58229F582E5833AF583E49322DB
:10145700BB010689828A83F0225002F722BBFE0174
:02146700F3226E
:10146900F8BB010DE58229F582E5833AF583E8F0B9
:10147900225006E92582C8F622BBFE05E92582C865
:02148900F2224D
:10148B00C2D5EC30E709B2D5E4C39DFDE49CFCEE7C
:10149B0030E715B2D5E4C39FFFE49EFE1214C1C31F
:1014AB00E49DFDE49CFC80031214C130D507C3E41A
:0614BB009FFFE49EFE22EB
:1014C100BC000BBE0029EF8DF084FFADF022E4CC0F
:1014D100F875F008EF2FFFEE33FEEC33FCEE9DECD8
:1014E100984005FCEE9DFE0FD5F0E9E4CEFD22ED1E
:1014F100F8F5F0EE8420D21CFEADF075F008EF2F68
:10150100FFED33FD4007985006D5F0F222C398FD58
:051511000FD5F0EA22F5
:00000001FF
