:030000000203AB4D
:0C03AB00787FE4F6D8FD7581200201DBAC
:0303D5000D0A000E
:04023100AD07AC0663
:100235007B007A00790F120026E4F508F509740FA2
:100245002509F8E6FF12036C0509E50970020508A2
:0B025500C39406E5086480948040E339
:01026000227B
:1001DB0012031D7F967E001200031202FA7F967E99
:1001EB00001200037F3B1203391202317F3D1203D1
:1001FB00391202317F3F1203391202317F4312034E
:10020B00391202317F451203391202317F47120333
:10021B00391202317BFF7A0379D51202B17FD07E7E
:06022B000712000380BE73
:10031D00E5A2543FF5A2759850758E40E4F58975A8
:0C032D008BE0758DFED28ED2ACD2AF22D8
:0300230002037E57
:10037E00309805C298859980309904C299C200328E
:10036C002000FDEF30D004C29B8002D29BD200F55E
:02037C009922C4
:1002B1008B088A09890AAB08AA09A90A12012560D3
:1002C10013050AE50A7002050914F9120125FF1246
:0502D100036C80E22235
:100026008B0A8A0B890C8C0D8D0EC3E50D648094AA
:1000360080500FC3E4950EF50EE4950DF50D742D65
:100046008008AB0AAA0BA90C742012013EAE0DAFB4
:100056000E7C277D10120150EF2430FFAB0A050CF1
:10006600E50C7002050BF9AA0BEF12013EAE0DAFBF
:100076000E7C277D101201508C0D8D0EAE0DAF0E2D
:100086007C037DE8120150EF2430FFAB0A050CE536
:100096000C7002050BF9AA0BEF12013EAE0DAF0E66
:1000A6007C037DE81201508C0D8D0EAE0DAF0E7CDB
:1000B600007D64120150EF2430FFAB0A050CE50CFD
:1000C6007002050BF9AA0BEF12013EAE0DAF0E7CC6
:1000D600007D641201508C0D8D0EAE0DAF0E7C00AE
:1000E6007D0A120150EF2430FFAB0A050CE50C70B7
:1000F60002050BF9AA0BEF12013EAE0DAF0E7C0006
:100106007D0A1201508C0D8D0EE50E2430FFAB0AD0
:0F011600050CE50C7002050BF9AA0BEF02013E78
:10000300E4FDFCC3ED9FEC9E5015E4FBFA0BBB0033
:0F001300010AEB64794A70F50DBD00010C80E421
:0100220022BB
:0503CF00007F0BDFFEC2
:0103D4002206
:0F038E00D2A6D2A71203CFC2A61203CFC2A722B4
:0C03B700C2A6D2A71203CFD2A60203CF29
:0E039D00A20192A6D2A71203CFC2A70203CFDD
:0C03C300D2A71203CFA2A6C2A70203CF4C
:0202D600AE0771
:1002D800E4FDEDC39408748094805013EE25E0FE8D
:1002E80092A6D2A71203CFC2A71203CF0D80E302B2
:0202F80003C33E
:10026100E4FED2A6FDEDC39408748094805017EE8D
:1002710025E0FED2A71203CFA2A6E4334206C2A70D
:080281001203CF0D80DFAF0670
:010289002252
:10035300AC05AB0712038E7FD01202D6AF03120295
:09036300D6AF041202D60203B762
:02028A00AC07BF
:10028C0012038E7FD01202D6AF041202D612038E46
:10029C007FD11202D6120261AE07D20112039D1257
:0402AC0003B7AF06DF
:0102B000222B
:1002FA00E4FD7F6B1203537D077F191203537D06BA
:10030A007F1A1203537D187F1B1203537D017F1C32
:03031A0002035388
:02033900AB0710
:10033B0012028AAA07EB04FF12028AAD07EAFE7CBF
:07034B0000E42DFFEC3EFE73
:010352002288
:10012500BB010689828A83E0225002E722BBFE02D8
:09013500E32289828A83E493220B
:10013E00BB010689828A83F0225002F722BBFE01A0
:02014E00F3229A
:10015000C2D5EC30E709B2D5E4C39DFDE49CFCEECA
:1001600030E715B2D5E4C39FFFE49EFE120186C3BB
:10017000E49DFDE49CFC800312018630D507C3E4B6
:060180009FFFE49EFE2239
:10018600BC000BBE0029EF8DF084FFADF022E4CC5D
:10019600F875F008EF2FFFEE33FEEC33FCEE9DEC26
:1001A600984005FCEE9DFE0FD5F0E9E4CEFD22ED6C
:1001B600F8F5F0EE8420D21CFEADF075F008EF2FB6
:1001C600FFED33FD4007985006D5F0F222C398FDA7
:0501D6000FD5F0EA2244
:00000001FF
